{
  "_format": "hh-sol-artifact-1",
  "contractName": "Upload",
  "sourceName": "contracts/Upload.sol",
  "abi": [
    {
      "inputs": [
        {
          "internalType": "address",
          "name": "_user",
          "type": "address"
        },
        {
          "internalType": "string",
          "name": "url",
          "type": "string"
        }
      ],
      "name": "add",
      "outputs": [],
      "stateMutability": "nonpayable",
      "type": "function"
    },
    {
      "inputs": [
        {
          "internalType": "address",
          "name": "user",
          "type": "address"
        }
      ],
      "name": "allow",
      "outputs": [],
      "stateMutability": "nonpayable",
      "type": "function"
    },
    {
      "inputs": [
        {
          "internalType": "address",
          "name": "user",
          "type": "address"
        }
      ],
      "name": "disallow",
      "outputs": [],
      "stateMutability": "nonpayable",
      "type": "function"
    },
    {
      "inputs": [
        {
          "internalType": "address",
          "name": "_user",
          "type": "address"
        }
      ],
      "name": "display",
      "outputs": [
        {
          "internalType": "string[]",
          "name": "",
          "type": "string[]"
        }
      ],
      "stateMutability": "view",
      "type": "function"
    },
    {
      "inputs": [
        {
          "internalType": "address",
          "name": "_user",
          "type": "address"
        },
        {
          "internalType": "string",
          "name": "url",
          "type": "string"
        }
      ],
      "name": "remove",
      "outputs": [],
      "stateMutability": "nonpayable",
      "type": "function"
    },
    {
      "inputs": [],
      "name": "shareAccess",
      "outputs": [
        {
          "components": [
            {
              "internalType": "address",
              "name": "user",
              "type": "address"
            },
            {
              "internalType": "bool",
              "name": "access",
              "type": "bool"
            }
          ],
          "internalType": "struct Upload.Access[]",
          "name": "",
          "type": "tuple[]"
        }
      ],
      "stateMutability": "view",
      "type": "function"
    }
  ],
  "bytecode": "0x608060405234801561001057600080fd5b50611623806100206000396000f3fe608060405234801561001057600080fd5b50600436106100625760003560e01c806336d6da551461006757806349209fc814610083578063a9ed9cb81461009f578063bc8bef81146100bb578063eb39113f146100d9578063ff9913e814610109575b600080fd5b610081600480360381019061007c9190610faf565b610125565b005b61009d60048036038101906100989190610faf565b6101a1565b005b6100b960048036038101906100b4919061100b565b61038b565b005b6100c36105ae565b6040516100d09190611140565b60405180910390f35b6100f360048036038101906100ee919061100b565b6106b7565b60405161010091906112ac565b60405180910390f35b610123600480360381019061011e919061100b565b6108cd565b005b6000808373ffffffffffffffffffffffffffffffffffffffff1673ffffffffffffffffffffffffffffffffffffffff1681526020019081526020016000208190806001815401808255809150506001900390600052602060002001600090919091909150908051906020019061019c929190610d14565b505050565b3373ffffffffffffffffffffffffffffffffffffffff168273ffffffffffffffffffffffffffffffffffffffff161461020f576040517f08c379a000000000000000000000000000000000000000000000000000000000815260040161020690611351565b60405180910390fd5b60005b6000808473ffffffffffffffffffffffffffffffffffffffff1673ffffffffffffffffffffffffffffffffffffffff16815260200190815260200160002080549050811015610386576000808473ffffffffffffffffffffffffffffffffffffffff1673ffffffffffffffffffffffffffffffffffffffff16815260200190815260200160002081815481106102ab576102aa611371565b5b906000526020600020016040516020016102c591906114a0565b60405160208183030381529060405280519060200120826040516020016102ec91906114e8565b604051602081830303815290604052805190602001201415610373576000808473ffffffffffffffffffffffffffffffffffffffff1673ffffffffffffffffffffffffffffffffffffffff168152602001908152602001600020818154811061035857610357611371565b5b90600052602060002001600061036e9190610d9a565b610386565b808061037e90611538565b915050610212565b505050565b6000600260003373ffffffffffffffffffffffffffffffffffffffff1673ffffffffffffffffffffffffffffffffffffffff16815260200190815260200160002060008373ffffffffffffffffffffffffffffffffffffffff1673ffffffffffffffffffffffffffffffffffffffff16815260200190815260200160002060006101000a81548160ff02191690831515021790555060005b600160003373ffffffffffffffffffffffffffffffffffffffff1673ffffffffffffffffffffffffffffffffffffffff168152602001908152602001600020805490508110156105aa578173ffffffffffffffffffffffffffffffffffffffff16600160003373ffffffffffffffffffffffffffffffffffffffff1673ffffffffffffffffffffffffffffffffffffffff16815260200190815260200160002082815481106104d5576104d4611371565b5b9060005260206000200160000160009054906101000a900473ffffffffffffffffffffffffffffffffffffffff1673ffffffffffffffffffffffffffffffffffffffff161415610597576000600160003373ffffffffffffffffffffffffffffffffffffffff1673ffffffffffffffffffffffffffffffffffffffff168152602001908152602001600020828154811061057257610571611371565b5b9060005260206000200160000160146101000a81548160ff0219169083151502179055505b80806105a290611538565b915050610423565b5050565b6060600160003373ffffffffffffffffffffffffffffffffffffffff1673ffffffffffffffffffffffffffffffffffffffff168152602001908152602001600020805480602002602001604051908101604052809291908181526020016000905b828210156106ae578382906000526020600020016040518060400160405290816000820160009054906101000a900473ffffffffffffffffffffffffffffffffffffffff1673ffffffffffffffffffffffffffffffffffffffff1673ffffffffffffffffffffffffffffffffffffffff1681526020016000820160149054906101000a900460ff1615151515815250508152602001906001019061060f565b50505050905090565b60603373ffffffffffffffffffffffffffffffffffffffff168273ffffffffffffffffffffffffffffffffffffffff1614806107795750600260008373ffffffffffffffffffffffffffffffffffffffff1673ffffffffffffffffffffffffffffffffffffffff16815260200190815260200160002060003373ffffffffffffffffffffffffffffffffffffffff1673ffffffffffffffffffffffffffffffffffffffff16815260200190815260200160002060009054906101000a900460ff165b6107b8576040517f08c379a00000000000000000000000000000000000000000000000000000000081526004016107af906115cd565b60405180910390fd5b6000808373ffffffffffffffffffffffffffffffffffffffff1673ffffffffffffffffffffffffffffffffffffffff168152602001908152602001600020805480602002602001604051908101604052809291908181526020016000905b828210156108c2578382906000526020600020018054610835906113cf565b80601f0160208091040260200160405190810160405280929190818152602001828054610861906113cf565b80156108ae5780601f10610883576101008083540402835291602001916108ae565b820191906000526020600020905b81548152906001019060200180831161089157829003601f168201915b505050505081526020019060010190610816565b505050509050919050565b6001600260003373ffffffffffffffffffffffffffffffffffffffff1673ffffffffffffffffffffffffffffffffffffffff16815260200190815260200160002060008373ffffffffffffffffffffffffffffffffffffffff1673ffffffffffffffffffffffffffffffffffffffff16815260200190815260200160002060006101000a81548160ff021916908315150217905550600360003373ffffffffffffffffffffffffffffffffffffffff1673ffffffffffffffffffffffffffffffffffffffff16815260200190815260200160002060008273ffffffffffffffffffffffffffffffffffffffff1673ffffffffffffffffffffffffffffffffffffffff16815260200190815260200160002060009054906101000a900460ff1615610b805760005b600160003373ffffffffffffffffffffffffffffffffffffffff1673ffffffffffffffffffffffffffffffffffffffff16815260200190815260200160002080549050811015610b7a578173ffffffffffffffffffffffffffffffffffffffff16600160003373ffffffffffffffffffffffffffffffffffffffff1673ffffffffffffffffffffffffffffffffffffffff1681526020019081526020016000208281548110610aa657610aa5611371565b5b9060005260206000200160000160009054906101000a900473ffffffffffffffffffffffffffffffffffffffff1673ffffffffffffffffffffffffffffffffffffffff161415610b675760018060003373ffffffffffffffffffffffffffffffffffffffff1673ffffffffffffffffffffffffffffffffffffffff1681526020019081526020016000208281548110610b4257610b41611371565b5b9060005260206000200160000160146101000a81548160ff0219169083151502179055505b8080610b7290611538565b9150506109f4565b50610d11565b600160003373ffffffffffffffffffffffffffffffffffffffff1673ffffffffffffffffffffffffffffffffffffffff16815260200190815260200160002060405180604001604052808373ffffffffffffffffffffffffffffffffffffffff168152602001600115158152509080600181540180825580915050600190039060005260206000200160009091909190915060008201518160000160006101000a81548173ffffffffffffffffffffffffffffffffffffffff021916908373ffffffffffffffffffffffffffffffffffffffff16021790555060208201518160000160146101000a81548160ff02191690831515021790555050506001600360003373ffffffffffffffffffffffffffffffffffffffff1673ffffffffffffffffffffffffffffffffffffffff16815260200190815260200160002060008373ffffffffffffffffffffffffffffffffffffffff1673ffffffffffffffffffffffffffffffffffffffff16815260200190815260200160002060006101000a81548160ff0219169083151502179055505b50565b828054610d20906113cf565b90600052602060002090601f016020900481019282610d425760008555610d89565b82601f10610d5b57805160ff1916838001178555610d89565b82800160010185558215610d89579182015b82811115610d88578251825591602001919060010190610d6d565b5b509050610d969190610dda565b5090565b508054610da6906113cf565b6000825580601f10610db85750610dd7565b601f016020900490600052602060002090810190610dd69190610dda565b5b50565b5b80821115610df3576000816000905550600101610ddb565b5090565b6000604051905090565b600080fd5b600080fd5b600073ffffffffffffffffffffffffffffffffffffffff82169050919050565b6000610e3682610e0b565b9050919050565b610e4681610e2b565b8114610e5157600080fd5b50565b600081359050610e6381610e3d565b92915050565b600080fd5b600080fd5b6000601f19601f8301169050919050565b7f4e487b7100000000000000000000000000000000000000000000000000000000600052604160045260246000fd5b610ebc82610e73565b810181811067ffffffffffffffff82111715610edb57610eda610e84565b5b80604052505050565b6000610eee610df7565b9050610efa8282610eb3565b919050565b600067ffffffffffffffff821115610f1a57610f19610e84565b5b610f2382610e73565b9050602081019050919050565b82818337600083830152505050565b6000610f52610f4d84610eff565b610ee4565b905082815260208101848484011115610f6e57610f6d610e6e565b5b610f79848285610f30565b509392505050565b600082601f830112610f9657610f95610e69565b5b8135610fa6848260208601610f3f565b91505092915050565b60008060408385031215610fc657610fc5610e01565b5b6000610fd485828601610e54565b925050602083013567ffffffffffffffff811115610ff557610ff4610e06565b5b61100185828601610f81565b9150509250929050565b60006020828403121561102157611020610e01565b5b600061102f84828501610e54565b91505092915050565b600081519050919050565b600082825260208201905092915050565b6000819050602082019050919050565b61106d81610e2b565b82525050565b60008115159050919050565b61108881611073565b82525050565b6040820160008201516110a46000850182611064565b5060208201516110b7602085018261107f565b50505050565b60006110c9838361108e565b60408301905092915050565b6000602082019050919050565b60006110ed82611038565b6110f78185611043565b935061110283611054565b8060005b8381101561113357815161111a88826110bd565b9750611125836110d5565b925050600181019050611106565b5085935050505092915050565b6000602082019050818103600083015261115a81846110e2565b905092915050565b600081519050919050565b600082825260208201905092915050565b6000819050602082019050919050565b600081519050919050565b600082825260208201905092915050565b60005b838110156111c85780820151818401526020810190506111ad565b838111156111d7576000848401525b50505050565b60006111e88261118e565b6111f28185611199565b93506112028185602086016111aa565b61120b81610e73565b840191505092915050565b600061122283836111dd565b905092915050565b6000602082019050919050565b600061124282611162565b61124c818561116d565b93508360208202850161125e8561117e565b8060005b8581101561129a578484038952815161127b8582611216565b94506112868361122a565b925060208a01995050600181019050611262565b50829750879550505050505092915050565b600060208201905081810360008301526112c68184611237565b905092915050565b600082825260208201905092915050565b7f596f7520646f6e2774206861766520616e792072696768747320746f2064656c60008201527f657465206f74686572277320436f6e74656e7400000000000000000000000000602082015250565b600061133b6033836112ce565b9150611346826112df565b604082019050919050565b6000602082019050818103600083015261136a8161132e565b9050919050565b7f4e487b7100000000000000000000000000000000000000000000000000000000600052603260045260246000fd5b7f4e487b7100000000000000000000000000000000000000000000000000000000600052602260045260246000fd5b600060028204905060018216806113e757607f821691505b602082108114156113fb576113fa6113a0565b5b50919050565b600081905092915050565b60008190508160005260206000209050919050565b6000815461142e816113cf565b6114388186611401565b94506001821660008114611453576001811461146457611497565b60ff19831686528186019350611497565b61146d8561140c565b60005b8381101561148f57815481890152600182019150602081019050611470565b838801955050505b50505092915050565b60006114ac8284611421565b915081905092915050565b60006114c28261118e565b6114cc8185611401565b93506114dc8185602086016111aa565b80840191505092915050565b60006114f482846114b7565b915081905092915050565b7f4e487b7100000000000000000000000000000000000000000000000000000000600052601160045260246000fd5b6000819050919050565b60006115438261152e565b91507fffffffffffffffffffffffffffffffffffffffffffffffffffffffffffffffff821415611576576115756114ff565b5b600182019050919050565b7f596f7520646f6e27742068617665206163636573730000000000000000000000600082015250565b60006115b76015836112ce565b91506115c282611581565b602082019050919050565b600060208201905081810360008301526115e6816115aa565b905091905056fea2646970667358221220746332ba2b0e2801af904dcf7f930c78732f14a1470c681f9eae168359aafe9864736f6c63430008090033",
  "linkReferences": {},
  "deployedLinkReferences": {}
}